:020000000C945E
:100002006A000C9400000C9400000C9400000C9404
:1000120000000C9400000C9400000C9400000C945E
:1000220000000C9400000C9400000C9400000C944E
:1000320000000C9400000C9400000C9400000C943E
:1000420000000C9400000C9400000C9400000C942E
:10005200000057454C434F4D4521004443206D6FEE
:10006200746F7220636F6E74726F6C20776974683C
:100072002041544D454741333200536179796564DB
:10008200204D6F68616D6D616420486F7365696EA4
:100092002048617368656D69004D6F68616D6D61BF
:1000A2006420486F7365696E204D616C656B7900E1
:1000B20080C00900600154001F0069015D001F003B
:1000C20088017C001700A7019B000200BE01B2005C
:1000D2000000F894EE27ECBBF1E0FBBFEBBFE5BFFD
:1000E2008DE0A2E0BB27ED938A95E9F780E094E0EA
:1000F200A0E6ED930197E9F7E4EBF0E085919591A5
:10010200009761F0A591B59105901590BF01F0019E
:1001120005900D920197E1F7FB01F0CFEFE5EDBFFE
:10012200E4E0EEBFC0E6D1E00C94A400AA93E8811B
:10013200E062E7B983E08A95F1F7369A349BFECF05
:10014200349AE5B1E6C0E0E0EABBEBBBE7BBE8BB53
:10015200E3E0E4BBE0E0E5BBEFEFE1BBE0E0E2BB04
:10016200E2BDE2E6E5BDE0E0E4BDE3BDE0E2E7B921
:10017200E1E8E6B9E0E0E0BFE3BDA8E2A1D070D0DB
:10018200E0E1EA93A0E05FD0A0E6B1E088D0E5E04C
:10019200EA93A1E058D0A9E6B1E081D0A8EBBBE098
:1001A2000E9497015DD0E5E0EA93A0E04CD0A8E878
:1001B200B1E075D0E9E0EA93A1E045D0A7EAB1E069
:1001C2006ED0A0E0B3DFE3BDB09902C0A898A99AAF
:1001D200B19902C0A89AA998B29902C0A898A99800
:1001E200F0CFFFCFAA93E881E07111F0939A01C09A
:1001F2009398E881E07211F0949A01C09498E88192
:10020200E07411F0959A01C09598E881E07811F0B8
:10021200969A01C0969882E08A95F1F7919A82E0C7
:100222008A95F1F7919882E08A95F1F772C0AA93C4
:10023200A881D8DFE881E295E883A881D3DF81E154
:100242008A95F1F766C0AA93E881F0E0E254FE4F86
:10025200E081A981AE0FEBDF598048802296089594
:10026200A2E059D0ACE0E3DFA1E055D0E0E04E2EB1
:100272005E2E0895AA93A881AA3011F0571448F06F
:10028200E0E0EA934394A42DDEDFA881AA3009F4CA
:1002920040C05394909AA881CADF90983AC0BA930A
:1002A200AA931A93A981BA81ED91A983BA831E2FC9
:1002B200E03019F0A12FDEDFF5CF188123960895E3
:1002C200AA938B9A8C9A8D9A8E9A899A889A8A9AEC
:1002D2009198909892987880E881E058E093C001D4
:1002E200E881E054E093C101A4E1B0E00E949701EB
:1002F20017D016D015D0A0E275DF81E28A95F1F70A
:10030200A8E295DFA4E093DFA5E891DFA6E08FDF06
:10031200A7DF219608958BDFA3E0B0E00C9497014C
:10032200A0E360DF81E28A95F1F70895109639F033
:10033200A8958AEF90E00197F1F71197C9F7089510
:00000001FF
