:080000000C946B000C9400004D
:100008000C9400000C9400000C9400000C94000068
:100018000C9400000C9400000C9400000C94000058
:100028000C9400000C9400000C9400000C94000048
:100038000C9400000C9400000C9400000C94000038
:100048000C9400000C9400000C94000040792430BB
:1000580019120278001057454C434F4D4521005462
:10006800726166666963206C69676874730034300E
:10007800323233363331343300343030333632337E
:10008800303335006C26375320313670202020203D
:1000980020206C6364203670000080C00A00B20221
:1000A8005400090060025E000F00690267000F003B
:1000B800780267000B00870276000B00920281002D
:1000C80015009D028C000200D002A2000000F894E6
:1000D800EE27ECBBF1E0FBBFEBBFE5BF8DE0A2E094
:1000E800BB27ED938A95E9F780E098E0A0E6ED93C9
:1000F8000197E9F7E4EAF0E085919591009761F0BE
:10010800A591B59105901590BF01F00105900D924C
:100118000197E1F7FB01F0CFEFE5EDBFE8E0EEBFB7
:10012800C0E6D2E00C94EF00BA93AA93E881F98173
:10013800309719F4C698C7980FC0A881B98111974C
:1001480019F4C69AC79808C0A881B981129711F402
:10015800C69801C0C69AC79A0C944702BA93AA9344
:10016800EA81FB813097A1F4E881F981309721F485
:10017800C09AC198C2980BC0A881B981119721F47F
:10018800C098C19AC29803C0C098C198C29A13C0B7
:10019800E881F981309721F4C39AC498C5980BC0B7
:1001A800A881B981119721F4C398C49AC59803C04E
:1001B800C398C498C59A24960895AA93E881E7B984
:1001C8008BE18A95F1F7369A349BFECF349AE4B1E5
:1001D800F5B10C94B002E0E0EABBE1E0EBBBEFEF75
:1001E800E7BBE0E0E8BBEFEFE4BBE0E0E5BBEFEF47
:1001F800E1BBE2BBE0E0E7B9E3E8E6B9E0E0E0BF95
:10020800A4E180D1E6E0EA93A1E02ED1A0E6B2E035
:1002180068D1E3E0EA93A2E027D1A9E6B2E061D190
:10022800A8ECB0E00E94F50230D1E3E0EA93A0E048
:100238001BD1A8E7B2E055D1E5E0EA93A1E014D1DB
:10024800A7E8B2E04ED1E5E0EA93A2E00DD1A2E939
:10025800B2E047D1E0E0EA93A3E006D1ADE9B2E02D
:1002680040D17CD1E0E0E093C202E093C302ECE32A
:10027800F0E07BD1EDE2F0E07DD1ACEBB2E0ED91C6
:10028800FD913197FE93EE93AEEBB2E0ED91FD91C7
:100298003197FE93EE93E091BC02F091BD02309746
:1002A80089F4E091C002F091C102309721F467D13E
:1002B8005CD154D107C068D158D1E0E0E093C002C6
:1002C800E093C1026CD1139734F4A091C002B091AD
:1002D800C102129709F006C0E1E0F0E0E093C00225
:1002E800F093C102E091BE02F091BF023097B1F4E1
:1002F800E091C202F091C302309749F440D13AD15B
:10030800E2E0F0E0E093C202F093C30207C03CD100
:1003180031D1E0E0E093C202E093C30245D11397E4
:1003280034F4A091C202B091C302129709F006C03A
:10033800E1E0F0E0E093C202F093C302E0E0F0E015
:10034800FA93EA93A091C002B091C10207DFE1E0FD
:10035800F0E0FA93EA93A091C202B091C302FEDEE4
:100368001ED1EAE0F0E00E942303E093C602F09376
:10037800C70215D1EAE0F0E00E942803E093C80222
:10038800F093C90211D1EAE0F0E00E942303E09360
:10039800CA02F093CB0208D1EAE0F0E00E942803F9
:1003A800E093CC02F093CD02E0E0E093C402E09346
:1003B800C502A091C402B091C502119724F5E0913D
:1003C800C602F091C702F5D0A3E0F8D0E091C802C8
:1003D800F091C902EED0A2E0F1D0E091CA02F0910A
:1003E800CB02E7D0A1E0EAD0E091CC02F091CD02B7
:1003F800E0D0A0E0E3D0A4ECB2E0ED91FD9131961D
:10040800FE93EE93D6CFA0E0D8DEACE3B0E00E9436
:100418000303DF01EFEFF3E00E941003E093CE0245
:10042800F093CF022ACFFFCFAA93E5B3EF70AE2F98
:10043800E881E07FEA2BE5BB8DE08A95F1F7A99A80
:100448008DE08A95F1F7A9988DE08A95F1F784C037
:10045800AA93A881E9DFE881E295E883A881E4DF2F
:1004680085E88A95F1F778C0AA93E881F0E0E0532F
:10047800FD4FE081A981AE0FEBDFE981E093D40263
:10048800E881E093D50222960895A2E09ED0ACE0E0
:10049800DFDFA1E09AD0E0E0E093D502E093D40258
:1004A8000895AA93A881AA3031F0E091D602A091CC
:1004B800D402AE1760F0E0E0EA93A091D502AF5FF6
:1004C800A093D502D1DFA881AA3009F445C0E091F4
:1004D800D402EF5FE093D402A89AA881B9DFA89864
:1004E8003BC0BA93AA931A93A981BA81ED91A983C3
:1004F800BA831E2FE03019F0A12FD3DFF5CF188172
:1005080023960895AA93E4B3E06FE4BBA19AA09A56
:10051800A29AA998A898AA98E881E093D602E058E8
:10052800E093D202E881E054E093D302A4E1B0E082
:100538000E94F5024FD04ED04DD0A0E275DF88EC76
:1005480090E00197F1F7A8E283DFA4E081DFA5E856
:100558007FDFA6E07DDF99DF21960895E2E0F0E0F5
:10056800E093C002F093C1020895E093BC02F093B7
:10057800BD020895E093BE02F093BF020895E09192
:10058800CE02F091CF020895FADFA3E0B0E00E9416
:100598000B03DF01E4E0F0E00E9423030895A0913B
:1005A800BC02B091BD020895A091BE02B091BF02F5
:1005B8000895EE54FD4FE081E2BB0895B0E00E943B
:1005C8009800AEE1B0E00C94F50242DFA3E0B0E0A1
:1005D8000C94F502A0E328DF88EC90E00197F1F78E
:1005E8000895109639F0A89580ED97E00197F1F7F6
:1005F8001197C9F70895F195E195F0400895FA9F8C
:10060800F02DEB9FF00DEA9FE02DF10D08952AD013
:10061800F6DF0EF4F0DF08950024112490E1AA0F0C
:10062800BB1F001C111C0E1A1F0A18F40E0E1F1EE9
:1006380001C0A1609A9599F7FD01D001089512D0E3
:10064800EBDF0EF4D8DF0895E894B7FF04C0A09557
:10065800B09511966894F7FDCEDFDEDFFD010EF44C
:10066800CADF0895E894F7FF02C0C5DF6894B7FFB2
:1006780006C0A095B095119600F8039400FA089565
:00000001FF
